:020000040000FA
:2B000000FFFF62FF2900FFFFFFFFFFFFFFFFFFFFFFFFFFFFFFFFFFFFFFFFFFFFFFFFFFFFFFFFFFFFFFFFFFFFFFFFFF72
:2B002B00601886611886611886611886611886611886010000000018866118866118866118866118866118866180E74F
:2B005600401004411004411004411004411004411004010000000010044110044110044110044110044110044180E71C
:2B008100000000000000000000000000000000000000000000000000000000000000000000000000000000000080E7ED
:2B00AC00000000000000000000000000000000000000000000000000000000000000000000000000000000000080E7C2
:2B00D700000000000000000000000000000000000000000000000000000000000000000000000000000000000080E797
:2B010200000000000000000000000000000000000000000000000000000000000000000000000000000000000080E76B
:2B012D00000000000000000000000000000000000000000000000000000000000000000000000000000000000080E740
:2B015800000000000000000000000000000000000000000000000000000000000000000000000000000000000080E715
:2B018300000000000000000000000000000000000000000000000000000000000000000000000000000000000080E7EA
:2B01AE00000000000000000000000000000000000000000000000000000000000000000000000000000000000080E7BF
:2B01D900000000000000000000000000000000000000000000000000000000000000000000000000000000000080E794
:2B020400000000000000000000000000000000000000000000000000000000000000000000000000000000000080E768
:2B022F00000000000000000000000000000000000000000000000000000000000000000000000000000000000080E73D
:2B025A00000000000000000000000000000000000000000000000000000000000000000000000000000000000080E712
:2B028500000000000000000000000000000000000000000000000000000000000000000000000000000000000080E7E7
:2B02B000000000000000000000000000000000000000000000000000000000000000000000000000000000000080E7BC
:2B02DB00000000000000000000000000000000000000000000000000000000000000000000000000000000000080E791
:2B030600000000000000000000000000000000000000000000000000000000000000000000000000000000000080E765
:2B033100000000000000000000000000000000000000000000000000000000000000000000000000000000000080E73A
:2B035C00000000000000000000000000000000000000000000000000000000000000000000000000000000000080E70F
:2B038700000000000000000000000000000000000000000000000000000000000000000000000000000000000080E7E4
:2B03B200020000000000000000000000000000000000000000000000000000000000000000000000000000000008ED29
:2B03DD00000000000000000000000000000000000000000000000000000000000000000000000000000000000080E78E
:2B040800000000000000000000000000000000000000000000000000000000000000000000000000000000000080E762
:2B043300000000000000000000000000000000000000000000000000000000000000000000000000000000000080E737
:2B045E00000000000000000000000000000000000000000000000000000000000000000000000000000000000080E70C
:2B048900020000000000000000000000000000000000000000000000000000000000000000000000000000000008ED51
:2B04B400800008800008800008800008800008800008000000000020000220000220000220000220000220000280E7BA
:2B04DF00800008800008800008800008800008800008000000000020000220000220000220000220000220000280E78F
:2B050A00000000000000000000000000000000000000000000000000000000000000000000000000000000000080E75F
:2B053500020000000000000000000000000000000000000000000000000000000000000000000000000000000008EDA4
:2B056000000000000000000000000000000000000000000000000000000000000000000000000000000000000080E709
:2B058B00000000000000000000000000000000000000000000000000000000000000000000000000000000000080E7DE
:2B05B600000000000000000000000000000000000000000000000000000000000000000000000000000000000080E7B3
:2B05E100000000000000000000000000000000000000000000000000000000000000000000000000000000000080E788
:2B060C00020000000000000000000000000000000000000000000000000000000000000000000000000000000008EDCC
:2B063700000000000000000000000000000000000000000000000000000000000000000000000000000000000080E731
:2B066200000000000000000000000000000000000000000000000000000000000000000000000000000000000080E706
:2B068D00000000000000000000000000000000000000000000000000000000000000000000000000000000000080E7DB
:2B06B800020000000000000000000000000000000000000000000000000000000000000000000000000000000008ED20
:2B06E300000000000000000000000000000000000000000000000000000000000000000000000000000000000080E785
:2B070E00000000000000000000000000000000000000000000000000000000000000000000000000000000000080E759
:2B073900000000000000000000000000000000000000000000000000000000000000000000000000000000000080E72E
:2B076400000000000000000000000000000000000000000000000000000000000000000000000000000000000080E703
:2B078F00020000000000000000000000000000000000000000000000000000000000000000000000000000000008ED48
:2B07BA00000000000000000000000000000000000000000000000000000000000000000000000000000000000080E7AD
:2B07E500000000000000000000000000000000000000000000000000000000000000000000000000000000000080E782
:2B081000000000000000000000000000000000000000000000000000000000000000000000000000000000000080E756
:2B083B00020000000000000000000000000000000000000000000000000000000000000000000000000000000008ED9B
:2B086600000000000000000000000000000000000000000000000000000000000000000000000000000000000080E700
:2B089100000000000000000000000000000000000000000000000000000000000000000000000000000000000080E7D5
:2B08BC00000000000000000000000000000000000000000000000000000000000000000000000000000000000080E7AA
:2B08E700000000000000000000000000000000000000000000000000000000000000000000000000000000000080E77F
:2B091200020000000000000000000000000000000000000000000000000000000000000000000000000000000008EDC3
:2B093D00000000000000000000000000000000000000000000000000000000000000000000000000000000000080E728
:2B096800000000000000000000000000000000000000000000000000000000000000000000000000000000000080E7FD
:2B099300000000000000000000000000000000000000000000000000000000000000000000000000000000000080E7D2
:2B09BE00020000000000000000000000000000000000000000000000000000000000000000000000000000000008ED17
:2B09E900000000000000000000000000000000000000000000000000000000000000000000000000000000000080E77C
:2B0A1400000000000000000000000000000000000000000000000000000000000000000000000000000000000080E750
:2B0A3F00000000000000000000000000000000000000000000000000000000000000000000000000000000000080E725
:2B0A6A00000000000000000000000000000000000000000000000000000000000000000000000000000000000080E7FA
:2B0A9500020000000000000000000000000000000000000000000000000000000000000000000000000000000008ED3F
:2B0AC000000000000000000000000000000000000000000000000000000000000000000000000000000000000080E7A4
:2B0AEB00000000000000000000000000000000000000000000000000000000000000000000000000000000000080E779
:2B0B1600000000000000000000000000000000000000000000000000000000000000000000000000000000000080E74D
:2B0B4100020000000000000000000000000000000000000000000000000000000000000000000000000000000008ED92
:2B0B6C00000000000000000000000000000000000000000000000000000000000000000000000000000000000080E7F7
:2B0B9700000000000000000000000000000000000000000000000000000000000000000000000000000000000080E7CC
:2B0BC200000000000000000000000000000000000000000000000000000000000000000000000000000000000080E7A1
:2B0BED00000000000000000000000000000000000000000000000000000000000000000000000000000000000080E776
:2B0C1800020000000000000000000000000000000000000000000000000000000000000000000000000000000008EDBA
:2B0C4300000000000000000000000000000000000000000000000000000000000000000000000000000000000080E71F
:2B0C6E00000000000000000000000000000000000000000000000000000000000000000000000000000000000080E7F4
:2B0C9900000000000000000000000000000000000000000000000000000000000000000000000000000000000080E7C9
:2B0CC400020000000000000000000000000000000000000000000000000000000000000000000000000000000008ED0E
:2B0CEF00000000000000000000000000000000000000000000000000000000000000000000000000000000000080E773
:2B0D1A00000000000000000000000000000000000000000000000000000000000000000000000000000000000080E747
:2B0D4500000000000000000000000000000000000000000000000000000000000000000000000000000000000080E71C
:2B0D7000000000000000000000000000000000000000000000000000000000000000000000000000000000000080E7F1
:2B0D9B00020000000000000000000000000000000000000000000000000000000000000000000000000000000008ED36
:2B0DC600000000000000000000000000000000000000000000000000000000000000000000000000000000000080E79B
:2B0DF100000000000000000000000000000000000000000000000000000000000000000000000000000000000080E770
:2B0E1C00000000000000000000000000000000000000000000000000000000000000000000000000000000000080E744
:2B0E4700020000000000000000000000000000000000000000000000000000000000000000000000000000000008ED89
:2B0E7200000000000000000000000000000000000000000000000000000000000000000000000000000000000080E7EE
:2B0E9D00000000000000000000000000000000000000000000000000000000000000000000000000000000000080E7C3
:2B0EC800000000000000000000000000000000000000000000000000000000000000000000000000000000000080E798
:2B0EF300000000000000000000000000000000000000000000000000000000000000000000000000000000000080E76D
:2B0F1E00020000000000000000000000000000000000000000000000000000000000000000000000000000000008EDB1
:2B0F4900000000000000000000000000000000000000000000000000000000000000000000000000000000000080E716
:2B0F7400000000000000000000000000000000000000000000000000000000000000000000000000000000000080E7EB
:2B0F9F00000000000000000000000000000000000000000000000000000000000000000000000000000000000080E7C0
:2B0FCA00000000000000000000000000000000000000000000000000000000000000000000000000000000000080E795
:2B0FF500000000000000000000000000000000000000000000000000000000000000000000000000000000000080E76A
:2B102000800008800008800008800008800008800008000000000020000220000220000220000220000220000280E742
:2B104B00800008800008800008800008800008800008000000000020000220000220000220000220000220000280E717
:2B107600000000000000000000000000000000000000000000000000000000000000000000000000000000000080E7E8
:2B10A100000000000000000000000000000000000000000000000000000000000000000000000000000000000080E7BD
:2B10CC00000000000000000000000000000000000000000000000000000000000000000000000000000000000080E792
:2B10F700000000000000000000000000000000000000000000000000000000000000000000000000000000000080E767
:2B112200000000000000000000000000000000000000000000000000000000000000000000000000000000000080E73B
:2B114D00000000000000000000000000000000000000000000000000000000000000000000000000000000000080E710
:2B117800000000000000000000000000000000000000000000000000000000000000000000000000000000000080E7E5
:2B11A300000000000000000000000000000000000000000000000000000000000000000000000000000000000080E7BA
:2B11CE00000000000000000000000000000000000000000000000000000000000000000000000000000000000080E78F
:2B11F900000000000000000000000000000000000000000000000000000000000000000000000000000000000080E764
:2B122400000000000000000000000000000000000000000000000000000000000000000000000000000000000080E738
:2B124F00000000000000000000000000000000000000000000000000000000000000000000000000000000000080E70D
:2B127A00000000000000000000000000000000000000000000000000000000000000000000000000000000000080E7E2
:2B12A500000000000000000000000000000000000000000000000000000000000000000000000000000000000080E7B7
:2B12D000000000000000000000000000000000000000000000000000000000000000000000000000000000000080E78C
:2B12FB00000000000000000000000000000000000000000000000000000000000000000000000000000000000080E761
:2B132600000000000000000000000000000000000000000000000000000000000000000000000000000000000080E735
:2B135100000000000000000000000000000000000000000000000000000000000000000000000000000000000080E70A
:2B137C00000000000000000000000000000000000000000000000000000000000000000000000000000000000080E7DF
:2B13A700000000000000000000000000000000000000000000000000000000000000000000000000000000000080E7B4
:2B13D200000000000000000000000000000000000000000000000000000000000000000000000000000000000080E789
:2B13FD00000000000000000000000000000000000000000000000000000000000000000000000000000000000080E75E
:2B142800000000000000000000000000000000000000000000000000000000000000000000000000000000000080E732
:2B145300000000000000000000000000000000000000000000000000000000000000000000000000000000000080E707
:2B147E00000000000000000000000000000000000000000000000000000000000000000000000000000000000080E7DC
:2B14A900000000000000000000000000000000000000000000000000000000000000000000000000000000000080E7B1
:2B14D400000000000000000000000000000000000000000000000000000000000000000000000000000000000080E786
:2B14FF00000000000000000000000000000000000000000000000000000000000000000000000000000000000080E75B
:2B152A00000000000000000000000000000000000000000000000000000000000000000000000000000000000080E72F
:2B155500000000000000000000000000000000000000000000000000000000000000000000000000000000000080E704
:2B158000000000000000000000000000000000000000000000000000000000000000000000000000000000000080E7D9
:2B15AB00000000000000000000000000000000000000000000000000000000000000000000000000000000000080E7AE
:2B15D600000000000000000000000000000000000000000000000000000000000000000000000000000000000080E783
:2B160100000000000000000000000000000000000000000000000000000000000000000000000000000000000080E757
:2B162C00020000000000000000000000000000000000000000000000000000000000000000000000000000000008ED9C
:2B165700000000000000000000000000000000000000000000000000000000000000000000000000000000000080E701
:2B168200000000000000000000000000000000000000000000000000000000000000000000000000000000000080E7D6
:2B16AD00000000000000000000000000000000000000000000000000000000000000000000000000000000000080E7AB
:2B16D800000000000000000000000000000000000000000000000000000000000000000000000000000000000080E780
:2B170300020000000000000000000000000000000000000000000000000000000000000000000000000000000008EDC4
:2B172E00800008800008800008800008800008800008000000000020000220000220000220000220000220000280E72D
:2B175900800008800008800008800008800008800008000000000020000220000220000220000220000220000280E702
:2B178400000000000000000000000000000000000000000000000000000000000000000000000000000000000080E7D3
:2B17AF00020000000000000000000000000000000000000000000000000000000000000000000000000000000008ED18
:2B17DA00000000000000000000000000000000000000000000000000000000000000000000000000000000000080E77D
:2B180500000000000000000000000000000000000000000000000000000000000000000000000000000000000080E751
:2B183000000000000000000000000000000000000000000000000000000000000000000000000000000000000080E726
:2B185B00000000000000000000000000000000000000000000000000000000000000000000000000000000000080E7FB
:2B188600020000000000000000000000000000000000000000000000000000000000000000000000000000000008ED40
:2B18B100000000000000000000000000000000000000000000000000000000000000000000000000000000000080E7A5
:2B18DC00000000000000000000000000000000000000000000000000000000000000000000000000000000000080E77A
:2B190700000000000000000000000000000000000000000000000000000000000000000000000000000000000080E74E
:2B193200020000000000000000000000000000000000000000000000000000000000000000000000000000000008ED93
:2B195D00000000000000000000000000000000000000000000000000000000000000000000000000000000000080E7F8
:2B198800000000000000000000000000000000000000000000000000000000000000000000000000000000000080E7CD
:2B19B300000000000000000000000000000000000000000000000000000000000000000000000000000000000080E7A2
:2B19DE00000000000000000000000000000000000000000000000000000000000000000000000000000000000080E777
:2B1A0900020000000000000000000000000000000000000000000000000000000000000000000000000000000008EDBB
:2B1A3400000000000000000000000000000000000000000000000000000000000000000000000000000000000080E720
:2B1A5F00000000000000000000000000000000000000000000000000000000000000000000000000000000000080E7F5
:2B1A8A00000000000000000000000000000000000000000000000000000000000000000000000000000000000080E7CA
:2B1AB500020000000000000000000000000000000000000000000000000000000000000000000000000000000008ED0F
:2B1AE000000000000000000000000000000000000000000000000000000000000000000000000000000000000080E774
:2B1B0B00000000000000000000000000000000000000000000000000000000000000000000000000000000000080E748
:2B1B3600000000000000000000000000000000000000000000000000000000000000000000000000000000000080E71D
:2B1B6100000000000000000000000000000000000000000000000000000000000000000000000000000000000080E7F2
:2B1B8C00020000000000000000000000000000000000000000000000000000000000000000000000000000000008ED37
:2B1BB700000000000000000000000000000000000000000000000000000000000000000000000000000000000080E79C
:2B1BE200000000000000000000000000000000000000000000000000000000000000000000000000000000000080E771
:2B1C0D00000000000000000000000000000000000000000000000000000000000000000000000000000000000080E745
:2B1C3800020000000000000000000000000000000000000000000000000000000000000000000000000000000008ED8A
:2B1C6300000000000000000000000000000000000000000000000000000000000000000000000000000000000080E7EF
:2B1C8E00000000000000000000000000000000000000000000000000000000000000000000000000000000000080E7C4
:2B1CB900000000000000000000000000000000000000000000000000000000000000000000000000000000000080E799
:2B1CE400000000000000000000000000000000000000000000000000000000000000000000000000000000000080E76E
:2B1D0F00020000000000000000000000000000000000000000000000000000000000000000000000000000000008EDB2
:2B1D3A00000000000000000000000000000000000000000000000000000000000000000000000000000000000080E717
:2B1D6500000000000000000000000000000000000000000000000000000000000000000000000000000000000080E7EC
:2B1D9000000000000000000000000000000000000000000000000000000000000000000000000000000000000080E7C1
:2B1DBB00020000000000000000000000000000000000000000000000000000000000000000000000000000000008ED06
:2B1DE600000000000000000000000000000000000000000000000000000000000000000000000000000000000080E76B
:2B1E1100000000000000000000000000000000000000000000000000000000000000000000000000000000000080E73F
:2B1E3C00000000000000000000000000000000000000000000000000000000000000000000000000000000000080E714
:2B1E6700000000000000000000000000000000000000000000000000000000000000000000000000000000000080E7E9
:2B1E9200020000000000000000000000000000000000000000000000000000000000000000000000000000000008ED2E
:2B1EBD00000000000000000000000000000000000000000000000000000000000000000000000000000000000080E793
:2B1EE800000000000000000000000000000000000000000000000000000000000000000000000000000000000080E768
:2B1F1300000000000000000000000000000000000000000000000000000000000000000000000000000000000080E73C
:2B1F3E00020000000000000000000000000000000000000000000000000000000000000000000000000000000008ED81
:2B1F6900000000000000000000000000000000000000000000000000000000000000000000000000000000000080E7E6
:2B1F9400000000000000000000000000000000000000000000000000000000000000000000000000000000000080E7BB
:2B1FBF00000000000000000000000000000000000000000000000000000000000000000000000000000000000080E790
:2B1FEA00000000000000000000000000000000000000000000000000000000000000000000000000000000000080E765
:2B201500020000000000000000000000000000000000000000000000000000000000000000000000000000000008EDA9
:2B204000000000000000000000000000000000000000000000000000000000000000000000000000000000000080E70E
:2B206B00000000000000000000000000000000000000000000000000000000000000000000000000000000000080E7E3
:2B209600000000000000000000000000000000000000000000000000000000000000000000000000000000000080E7B8
:2B20C100020000000000000000000000000000000000000000000000000000000000000000000000000000000008EDFD
:2B20EC00000000000000000000000000000000000000000000000000000000000000000000000000000000000080E762
:2B211700000000000000000000000000000000000000000000000000000000000000000000000000000000000080E736
:2B214200000000000000000000000000000000000000000000000000000000000000000000000000000000000080E70B
:2B216D00000000000000000000000000000000000000000000000000000000000000000000000000000000000080E7E0
:2B219800020000000000000000000000000000000000000000000000000000000000000000000000000000000008ED25
:2B21C300000000000000000000000000000000000000000000000000000000000000000000000000000000000080E78A
:2B21EE00000000000000000000000000000000000000000000000000000000000000000000000000000000000080E75F
:2B221900000000000000000000000000000000000000000000000000000000000000000000000000000000000080E733
:2B224400000000000000000000000000000000000000000000000000000000000000000000000000000000000080E708
:2B226F00000000000000000000000000000000000000000000000000000000000000000000000000000000000080E7DD
:2B229A00800008800008800008800008800008800008000000000020000220000220000220000220000220000280E7B6
:2B22C500800008800008800008800008800008800008000000000020000220000220000220000220000220000280E78B
:2B22F000000000000000000000000000000000000000000000000000000000000000000000000000000000000080E75C
:2B231B00000000000000000000000000000000000000000000000000000000000000000000000000000000000080E730
:2B234600000000000000000000000000000000000000000000000000000000000000000000000000000000000080E705
:2B237100000000000000000000000000000000000000000000000000000000000000000000000000000000000080E7DA
:2B239C00000000000000000000000000000000000000000000000000000000000000000000000000000000000080E7AF
:2B23C700000000000000000000000000000000000000000000000000000000000000000000000000000000000080E784
:2B23F200000000000000000000000000000000000000000000000000000000000000000000000000000000000080E759
:2B241D00000000000000000000000000000000000000000000000000000000000000000000000000000000000080E72D
:2B244800000000000000000000000000000000000000000000000000000000000000000000000000000000000080E702
:2B247300000000000000000000000000000000000000000000000000000000000000000000000000000000000080E7D7
:2B249E00000000000000000000000000000000000000000000000000000000000000000000000000000000000080E7AC
:2B24C900000000000000000000000000000000000000000000000000000000000000000000000000000000000080E781
:2B24F400000000000000000000000000000000000000000000000000000000000000000000000000000000000080E756
:2B251F00000000000000000000000000000000000000000000000000000000000000000000000000000000000080E72A
:2B254A00000000000000000000000000000000000000000000000000000000000000000000000000000000000080E7FF
:2B257500000000000000000000000000000000000000000000000000000000000000000000000000000000000080E7D4
:2B25A000000000000000000000000000000000000000000000000000000000000000000000000000000000000080E7A9
:2B25CB00000000000000000000000000000000000000000000000000000000000000000000000000000000000080E77E
:2B25F600000000000000000000000000000000000000000000000000000000000000000000000000000000000080E753
:2B262100000000000000000000000000000000000000000000000000000000000000000000000000000000000080E727
:2B264C00000000000000000000000000000000000000000000000000000000000000000000000000000000000080E7FC
:2B267700000000000000000000000000000000000000000000000000000000000000000000000000000000000080E7D1
:2B26A200000000000000000000000000000000000000000000000000000000000000000000000000000000000080E7A6
:2B26CD00000000000000000000000000000000000000000000000000000000000000000000000000000000000080E77B
:2B26F800000000000000000000000000000000000000000000000000000000000000000000000000000000000080E750
:2B272300000000000000000000000000000000000000000000000000000000000000000000000000000000000080E724
:2B274E00000000000000000000000000000000000000000000000000000000000000000000000000000000000080E7F9
:2B277900000000000000000000000000000000000000000000000000000000000000000000000000000000000080E7CE
:2B27A400000000000000000000000000000000000000000000000000000000000000000000000000000000000080E7A3
:2B27CF00000000000000000000000000000000000000000000000000000000000000000000000000000000000080E778
:2B27FA00000000000000000000000000000000000000000000000000000000000000000000000000000000000080E74D
:2B282500000000000000000000000000000000000000000000000000000000000000000000000000000000000080E721
:2B285000000000000000000000000000000000000000000000000000000000000000000000000000000000000080E7F6
:2B287B00000000000000000000000000000000000000000000000000000000000000000000000000000000000080E7CB
:2B28A600020000000000000000000000000000000000000000000000000000000000000000000000000000000008ED10
:2B28D100000000000000000000000000000000000000000000000000000000000000000000000000000000000080E775
:2B28FC00000000000000000000000000000000000000000000000000000000000000000000000000000000000080E74A
:2B292700000000000000000000000000000000000000000000000000000000000000000000000000000000000080E71E
:2B295200000000000000000000000000000000000000000000000000000000000000000000000000000000000080E7F3
:2B297D00020000000000000000000000000000000000000000000000000000000000000000000000000000000008ED38
:2B29A800800008800008800008800008800008800008000000000020000220000220000220000220000220000280E7A1
:2B29D300800008800008800008800008800008800008000000000020000220000220000220000220000220000280E776
:2B29FE00000000000000000000000000000000000000000000000000000000000000000000000000000000000080E747
:2B2A2900020000000000000000000000000000000000000000000000000000000000000000000000000000000008ED8B
:2B2A5400000000000000000000000000000000000000000000000000000000000000000000000000000000000080E7F0
:2B2A7F00000000000000000000000000000000000000000000000000000000000000000000000000000000000080E7C5
:2B2AAA00000000000000000000000000000000000000000000000000000000000000000000000000000000000080E79A
:2B2AD500000000000000000000000000000000000000000000000000000000000000000000000000000000000080E76F
:2B2B0000020000000000000000000000000000000000000000000000000000000000000000000000000000000008EDB3
:2B2B2B00000000000000000000000000000000000000000000000000000000000000000000000000000000000080E718
:2B2B5600000000000000000000000000000000000000000000000000000000000000000000000000000000000080E7ED
:2B2B8100000000000000000000000000000000000000000000000000000000000000000000000000000000000080E7C2
:2B2BAC00020000000000000000000000000000000000000000000000000000000000000000000000000000000008ED07
:2B2BD700000000000000000000000000000000000000000000000000000000000000000000000000000000000080E76C
:2B2C0200000000000000000000000000000000000000000000000000000000000000000000000000000000000080E740
:2B2C2D00000000000000000000000000000000000000000000000000000000000000000000000000000000000080E715
:2B2C5800000000000000000000000000000000000000000000000000000000000000000000000000000000000080E7EA
:2B2C8300020000000000000000000000000000000000000000000000000000000000000000000000000000000008ED2F
:2B2CAE00000000000000000000000000000000000000000000000000000000000000000000000000000000000080E794
:2B2CD900000000000000000000000000000000000000000000000000000000000000000000000000000000000080E769
:2B2D0400000000000000000000000000000000000000000000000000000000000000000000000000000000000080E73D
:2B2D2F00020000000000000000000000000000000000000000000000000000000000000000000000000000000008ED82
:2B2D5A00000000000000000000000000000000000000000000000000000000000000000000000000000000000080E7E7
:2B2D8500000000000000000000000000000000000000000000000000000000000000000000000000000000000080E7BC
:2B2DB000000000000000000000000000000000000000000000000000000000000000000000000000000000000080E791
:2B2DDB00000000000000000000000000000000000000000000000000000000000000000000000000000000000080E766
:2B2E0600020000000000000000000000000000000000000000000000000000000000000000000000000000000008EDAA
:2B2E3100000000000000000000000000000000000000000000000000000000000000000000000000000000000080E70F
:2B2E5C00000000000000000000000000000000000000000000000000000000000000000000000000000000000080E7E4
:2B2E8700000000000000000000000000000000000000000000000000000000000000000000000000000000000080E7B9
:2B2EB200020000000000000000000000000000000000000000000000000000000000000000000000000000000008EDFE
:2B2EDD00000000000000000000000000000000000000000000000000000000000000000000000000000000000080E763
:2B2F0800000000000000000000000000000000000000000000000000000000000000000000000000000000000080E737
:2B2F3300000000000000000000000000000000000000000000000000000000000000000000000000000000000080E70C
:2B2F5E00000000000000000000000000000000000000000000000000000000000000000000000000000000000080E7E1
:2B2F8900020000000000000000000000000000000000000000000000000000000000000000000000000000000008ED26
:2B2FB400000000000000000000000000000000000000000000000000000000000000000000000000000000000080E78B
:2B2FDF00000000000000000000000000000000000000000000000000000000000000000000000000000000000080E760
:2B300A00000000000000000000000000000000000000000000000000000000000000000000000000000000000080E734
:2B303500020000000000000000000000000000000000000000000000000000000000000000000000000000000008ED79
:2B306000000000000000000000000000000000000000000000000000000000000000000000000000000000000080E7DE
:2B308B00000000000000000000000000000000000000000000000000000000000000000000000000000000000080E7B3
:2B30B600000000000000000000000000000000000000000000000000000000000000000000000000000000000080E788
:2B30E100000000000000000000000000000000000000000000000000000000000000000000000000000000000080E75D
:2B310C00020000000000000000000000000000000000000000000000000000000000000000000000000000000008EDA1
:2B313700000000000000000000000000000000000000000000000000000000000000000000000000000000000080E706
:2B316200000000000000000000000000000000000000000000000000000000000000000000000000000000000080E7DB
:2B318D00000000000000000000000000000000000000000000000000000000000000000000000000000000000080E7B0
:2B31B800020000000000000000000000000000000000000000000000000000000000000000000000000000000008EDF5
:2B31E300000000000000000000000000000000000000000000000000000000000000000000000000000000000080E75A
:2B320E00000000000000000000000000000000000000000000000000000000000000000000000000000000000080E72E
:2B323900000000000000000000000000000000000000000000000000000000000000000000000000000000000080E703
:2B326400000000000000000000000000000000000000000000000000000000000000000000000000000000000080E7D8
:2B328F00020000000000000000000000000000000000000000000000000000000000000000000000000000000008ED1D
:2B32BA00000000000000000000000000000000000000000000000000000000000000000000000000000000000080E782
:2B32E500000000000000000000000000000000000000000000000000000000000000000000000000000000000080E757
:2B331000000000000000000000000000000000000000000000000000000000000000000000000000000000000080E72B
:2B333B00020000000000000000000000000000000000000000000000000000000000000000000000000000000008ED70
:2B336600000000000000000000000000000000000000000000000000000000000000000000000000000000000080E7D5
:2B339100000000000000000000000000000000000000000000000000000000000000000000000000000000000080E7AA
:2B33BC00000000000000000000000000000000000000000000000000000000000000000000000000000000000080E77F
:2B33E700000000000000000000000000000000000000000000000000000000000000000000000000000000000080E754
:2B341200020000000000000000000000000000000000000000000000000000000000000000000000000000000008ED98
:2B343D00000000000000000000000000000000000000000000000000000000000000000000000000000000000080E7FD
:2B346800000000000000000000000000000000000000000000000000000000000000000000000000000000000080E7D2
:2B349300000000000000000000000000000000000000000000000000000000000000000000000000000000000080E7A7
:2B34BE00000000000000000000000000000000000000000000000000000000000000000000000000000000000080E77C
:2B34E900000000000000000000000000000000000000000000000000000000000000000000000000000000000080E751
:2B351400800008800008800008800008800008800008000000000020000220000220000220000220000220000280E729
:2B353F00800008800008800008800008800008800008000000000020000220000220000220000220000220000280E7FE
:2B356A00000000000000000000000000000000000000000000000000000000000000000000000000000000000080E7CF
:2B359500000000000000000000000000000000000000000000000000000000000000000000000000000000000080E7A4
:2B35C000000000000000000000000000000000000000000000000000000000000000000000000000000000000080E779
:2B35EB00000000000000000000000000000000000000000000000000000000000000000000000000000000000080E74E
:2B361600000000000000000000000000000000000000000000000000000000000000000000000000000000000080E722
:2B364100000000000000000000000000000000000000000000000000000000000000000000000000000000000080E7F7
:2B366C00000000000000000000000000000000000000000000000000000000000000000000000000000000000080E7CC
:2B369700000000000000000000000000000000000000000000000000000000000000000000000000000000000080E7A1
:2B36C200000000000000000000000000000000000000000000000000000000000000000000000000000000000080E776
:2B36ED00000000000000000000000000000000000000000000000000000000000000000000000000000000000080E74B
:2B371800000000000000000000000000000000000000000000000000000000000000000000000000000000000080E71F
:2B374300000000000000000000000000000000000000000000000000000000000000000000000000000000000080E7F4
:2B376E00000000000000000000000000000000000000000000000000000000000000000000000000000000000080E7C9
:2B379900000000000000000000000000000000000000000000000000000000000000000000000000000000000080E79E
:2B37C400000000000000000000000000000000000000000000000000000000000000000000000000000000000080E773
:2B37EF00000000000000000000000000000000000000000000000000000000000000000000000000000000000080E748
:2B381A00000000000000000000000000000000000000000000000000000000000000000000000000000000000080E71C
:2B384500000000000000000000000000000000000000000000000000000000000000000000000000000000000080E7F1
:2B387000000000000000000000000000000000000000000000000000000000000000000000000000000000000080E7C6
:2B389B00000000000000000000000000000000000000000000000000000000000000000000000000000000000080E79B
:2B38C600000000000000000000000000000000000000000000000000000000000000000000000000000000000080E770
:2B38F100000000000000000000000000000000000000000000000000000000000000000000000000000000000080E745
:2B391C00000000000000000000000000000000000000000000000000000000000000000000000000000000000080E719
:2B394700000000000000000000000000000000000000000000000000000000000000000000000000000000000080E7EE
:2B397200000000000000000000000000000000000000000000000000000000000000000000000000000000000080E7C3
:2B399D00000000000000000000000000000000000000000000000000000000000000000000000000000000000080E798
:2B39C800000000000000000000000000000000000000000000000000000000000000000000000000000000000080E76D
:2B39F300000000000000000000000000000000000000000000000000000000000000000000000000000000000080E742
:2B3A1E00000000000000000000000000000000000000000000000000000000000000000000000000000000000080E716
:2B3A4900000000000000000000000000000000000000000000000000000000000000000000000000000000000080E7EB
:2B3A7400000000000000000000000000000000000000000000000000000000000000000000000000000000000080E7C0
:2B3A9F00000000000000000000000000000000000000000000000000000000000000000000000000000000000080E795
:2B3ACA00000000000000000000000000000000000000000000000000000000000000000000000000000000000080E76A
:2B3AF500000000000000000000000000000000000000000000000000000000000000000000000000000000000080E73F
:2B3B2000020000000000000000000000000000000000000000000000000000000000000000000000000000000008ED83
:2B3B4B00000000000000000000000000000000000000000000000000000000000000000000000000000000000080E7E8
:2B3B7600000000000000000000000000000000000000000000000000000000000000000000000000000000000080E7BD
:2B3BA100000000000000000000000000000000000000000000000000000000000000000000000000000000000080E792
:2B3BCC00000000000000000000000000000000000000000000000000000000000000000000000000000000000080E767
:2B3BF700020000000000000000000000000000000000000000000000000000000000000000000000000000000008EDAC
:2B3C2200800008800008800008800008800008800008000000000020000220000220000220000220000220000280E714
:2B3C4D00800008800008800008800008800008800008000000000020000220000220000220000220000220000280E7E9
:2B3C7800000000000000000000000000000000000000000000000000000000000000000000000000000000000080E7BA
:2B3CA300000000000000000000000000000000000000000000000000000000000000000000000000000000000008EFFF
:2B3CCE00020000000000000000000000000000000000000000000000000000000000000000000000000000000080E564
:2B3CF900020000000000000000000000000000000000000000000000000000000000000000000000000000000080E539
:2B3D2400020000000000000000000000000000000000000000000000000000000000000000000000000000000080E50D
:2B3D4F00020000000000000000000000000000000000000000000000000000000000000000000000000000000080E5E2
:2B3D7A00000000000000000000000000000000000000000000000000000000000000000000000000000000000008EF27
:2B3DA500000000000000000000000000000000000000000000000000000000000000000000000000000000000080E78C
:2B3DD000000000000000000000000000000000000000000000000000000000000000000000000000000000000080E761
:2B3DFB00000000000000000000000000000000000000000000000000000000000000000000000000000000000080E736
:2B3E2600000000000000000000000000000000000000000000000000000000000000000000000000000000000008EF7A
:2B3E5100020000000000000000000000000000000000000000000000000000000000000000000000000000000080E5DF
:2B3E7C00020000000000000000000000000000000000000000000000000000000000000000000000000000000080E5B4
:2B3EA700020000000000000000000000000000000000000000000000000000000000000000000000000000000080E589
:2B3ED200020000000000000000000000000000000000000000000000000000000000000000000000000000000080E55E
:2B3EFD00000000000000000000000000000000000000000000000000000000000000000000000000000000000008EFA3
:2B3F2800000000000000000000000000000000000000000000000000000000000000000000000000000000000080E707
:2B3F5300000000000000000000000000000000000000000000000000000000000000000000000000000000000080E7DC
:2B3F7E00000000000000000000000000000000000000000000000000000000000000000000000000000000000080E7B1
:2B3FA900020000000000000000000000000000000000000000000000000000000000000000000000000000000008EDF6
:2B3FD400000000000000000000000000000000000000000000000000000000000000000000000000000000000080E75B
:2B3FFF00000000000000000000000000000000000000000000000000000000000000000000000000000000000080E730
:2B402A00000000000000000000000000000000000000000000000000000000000000000000000000000000000080E704
:2B405500000000000000000000000000000000000000000000000000000000000000000000000000000000000080E7D9
:2B408000020000000000000000000000000000000000000000000000000000000000000000000000000000000008ED1E
:2B40AB00000000000000000000000000000000000000000000000000000000000000000000000000000000000080E783
:2B40D600000000000000000000000000000000000000000000000000000000000000000000000000000000000080E758
:2B410100000000000000000000000000000000000000000000000000000000000000000000000000000000000080E72C
:2B412C00020000000000000000000000000000000000000000000000000000000000000000000000000000000008ED71
:2B415700020000000000000000000000000000000000000000000000000000000000000000000000000000000080E5D6
:2B418200040000000000000000000000000000000000000000000000000000000000000000000000000000000080E3AB
:2B41AD00020000000000000000000000000000000000000000000000000000000000000000000000000000000080E580
:2B41D800020000000000000000000000000000000000000000000000000000000000000000000000000000000080E555
:2B420300020000000000000000000000000000000000000000000000000000000000000000000000000000000008ED99
:2B422E00000000000000000000000000000000000000000000000000000000000000000000000000000000000080E7FE
:2B425900000000000000000000000000000000000000000000000000000000000000000000000000000000000080E7D3
:2B428400000000000000000000000000000000000000000000000000000000000000000000000000000000000080E7A8
:2B42AF00020000000000000000000000000000000000000000000000000000000000000000000000000000000008EDED
:2B42DA00020000000000000000000000000000000000000000000000000000000000000000000000000000000080E552
:2B430500040000000000000000000000000000000000000000000000000000000000000000000000000000000080E326
:2B433000020000000000000000000000000000000000000000000000000000000000000000000000000000000080E5FB
:2B435B00020000000000000000000000000000000000000000000000000000000000000000000000000000000080E5D0
:2B438600020000000000000000000000000000000000000000000000000000000000000000000000000000000008ED15
:2B43B100000000000000000000000000000000000000000000000000000000000000000000000000000000000080E77A
:2B43DC00000000000000000000000000000000000000000000000000000000000000000000000000000000000080E74F
:2B440700000000000000000000000000000000000000000000000000000000000000000000000000000000000080E723
:2B443200020000000000000000000000000000000000000000000000000000000000000000000000000000000008ED68
:2B445D00000000000000000000000000000000000000000000000000000000000000000000000000000000000080E7CD
:2B448800000000000000000000000000000000000000000000000000000000000000000000000000000000000080E7A2
:2B44B300000000000000000000000000000000000000000000000000000000000000000000000000000000000080E777
:2B44DE00000000000000000000000000000000000000000000000000000000000000000000000000000000000080E74C
:2B450900020000000000000000000000000000000000000000000000000000000000000000000000000000000008ED90
:2B453400000000000000000000000000000000000000000000000000000000000000000000000000000000000080E7F5
:2B455F00000000000000000000000000000000000000000000000000000000000000000000000000000000000080E7CA
:2B458A00000000000000000000000000000000000000000000000000000000000000000000000000000000000080E79F
:2B45B500020000000000000000000000000000000000000000000000000000000000000000000000000000000008EDE4
:2B45E000020000000000000000000000000000000000000000000000000000000000000000000000000000000080E549
:2B460B00040000000000000000000000000000000000000000000000000000000000000000000000000000000080E31D
:2B463600020000000000000000000000000000000000000000000000000000000000000000000000000000000080E5F2
:2B466100020000000000000000000000000000000000000000000000000000000000000000000000000000000080E5C7
:2B468C00020000000000000000000000000000000000000000000000000000000000000000000000000000000008ED0C
:2B46B700000000000000000000000000000000000000000000000000000000000000000000000000000000000080E771
:2B46E200000000000000000000000000000000000000000000000000000000000000000000000000000000000080E746
:2B470D000C0000000000000000000000000000000000000000000000000000000000000000000000000000000080EB0A
:2B473800000000000000000000000000000000000000000000000000000000000000000000000000000000000080E7EF
:2B476300000000000000000000000000000000000000000000000000000000000000000000000000000000000080E7C4
:2B478E00800008800008800008800008800008800008000000000020000220000220000220000220000220000280E79D
:2B47B900800008800008800008800008800008800008000000000020000220000220000220000220000220000280E772
:2B47E400000000000000000000000000000000000000000000000000000000000000000000000000000000000080E743
:2B480F00000000000000044000000000000000000000000000000000000000000000000000000000000000000080E7D3
:2B483A00000000000000000000000000000000000000000000000000000000000000000000000000000000000080E7EC
:2B486500000000000082044000000000000000000000000000000000000000000000000000000000000000000000C79B
:2B489000000000000082000000000000000000000000000000000000000000000000000000000000000000000000C7B4
:2B48BB00000000000000000000000000000000000000000000000000000000000000000000000000000000000080E76B
:2B48E600000000000000000000000000000000000000000000000000000000000000000000000000000000000080E740
:2B491100000000000000000000000000000000000000000000000000000000000000000000000000000000000080E714
:2B493C00000000000000000000000000000000000000000000000000000000000000000000000000000000000080E7E9
:2B496700000000000000000000000000000000000000000000000000000000000000000000000000000000000080E7BE
:2B499200000000000000000000000000000000000000000000000000000000000000000000000000000000000080E793
:2B49BD00000000000000000000000000000000000000000000000000000000000000000000000000000000000080E768
:2B49E800000000000000000000000000000000000000000000000000000000000000000000000000000000000080E73D
:2B4A1300020000000000000000000000000000000000000000000000000000000000000000000000000000000080E511
:2B4A3E00000000000000000000000000000000000000000000000000000000000000000000000000000000000080E7E6
:2B4A6900000000000000000000000000000000000000000000000000000000000000000000000000000000000080E7BB
:2B4A9400080000000000000000000000000000000000000000000000000000000000000000000000000000000080EF80
:2B4ABF00000000000000000000000000000000000000000000000000000000000000000000000000000000000080E765
:2B4AEA00000000000000000000000000000000000000000000000000000000000000000000000000000000000080E73A
:2B4B1500000000000000000000000000000000000000000000000000000000000000000000000000000000000080E70E
:2B4B4000000000000000000000000000000000000000000000000000000000000000000000000000000000000080E7E3
:2B4B6B00000000000000000000000000000000000000000000000000000000000000000000000000000000000080E7B8
:2B4B9600040000000000000000000000000000000000000000000000000000000000000000000000000000000080E38D
:2B4BC100180000000000000000000000000000000000000000000000000000000000000000000000000000000080FF32
:2B4BEC00000000000000000000000000000000000000000000000000000000000000000000000000000000000080E737
:2B4C1700000000000000000000000000000000000000000000000000000000000000000000000000000000000080E70B
:2B4C4200020000000000000000000000000000000000000000000000000000000000000000000000000000000080E5E0
:2B4C6D00000000000000000000000000000000000000000000000000000000000000000000000000000000000080E7B5
:2B4C98001A0000000000000000000000000000000000000000000000000000000000000000000000000000000080FD5A
:2B4CC300000000000000000000000000000000000000000000000000000000000000000000000000000000000080E75F
:2B4CEE00000000000000000000000000000000000000000000000000000000000000000000000000000000000080E734
:2B4D1900000000000000000000000000000000000000000000000000000000000000000000000000000000000080E708
:2B4D4400000000000000000000000000000000000000000000000000000000000000000000000000000000000080E7DD
:2B4D6F00200200000000000000000000000010048080000000000000000000000000000000000000000000000000F8EB
:2B4D9A00020000000000000000000000000000000000000000000000000000000000000000000000000000000008EDF7
:2B4DC500020000000000000000000000000000000000000000000000000000000000000000000000000000000080E55C
:2B4DF000040000000000000000000000000010040000000000000000000000000000000000000000000000000080F60A
:2B4E1B00220200000000000000000000000000008080020000000000000000000000000000000000000000000000ED59
:2B4E4600020000000000000000000000000000000000000000000000000000000000000000000000000000000080E5DA
:2B4E7100020000000000000000000000000000000000000000000000000000000000000000000000000000000008ED1F
:2B4E9C00800008800008800008800008800008800008000000000020000220000220000220000220000220000280E788
:2B4EC700800008800008800008800008800008800008000000000020000220000220000220000220000220000280E75D
:2B4EF200000000000000000000000000000080000000000000000000000000000000000000000000000000000000E72E
:2B4F1D00020000000026100000000000000022600400000000000000000000000000000000000000000000000008990A
:2B4F48000200000000080800000000000000420000000000000000000000000000000000000000000000000000008169
:2B4F730004000000002400000000000000001CC009000000000000000000000000000000000000000000000000008185
:2B4F9E0002000000000008000000000000001A004000000000000000000000000000000000000000000000000000D0B4
:2B4FC9000200000000000000000000000000BA000200000000000000000000000000000000000000000000000080DCA3
:2B4FF400020000000000000000000000000018800100000000000000000000000000000000000000000000000008ED02
:2B501F00000000000000020000000000000000800100000000000000000000000000000000000000000000000000FCE7
:2B504A00000000000018000000000000000000800100000000000000000000000000000000000000000000000080E73B
:2B50750000000000003E100000000000000046600201000000000000000000000000000000000000000000000000DA3F
:2B50A000020000000018080000000000000040800500000000000000000000000000000000000000000000000008E511
:2B50CB0002000000002C000000000000000024C00300000000000000000000000000000000000000000000000080968F
:2B50F600040000000000080000000000000000800100000000000000000000000000000000000000000000000000F210
:2B5121000200000000100000000000000000808007000000000000000000000000000000000000000000000000808B3F
:2B514C00020000000018000000000000000000800100000000000000000000000000000000000000000000000080E538
:2B517700020000000018020000000000000018800100000000000000000000000000000000000000000000000088F6DA
:2B51A200000100000018000000000000000080000000000000000000000000000000000000000000000000000080EFDA
:2B51CD0060020100003E100000000000000022E00201000000000000000000000000000000000000000000000080A6DB
:2B51F80000800000000808000000000000009A8004000000000000000000000000000000000000000000000000809AC4
:2B52230042020000003400000000000000001C400300000000000000000000000000000000000000000000000088D62B
:2B524E00028000000018080000000000000042008100000000000000000000000000000000000000000000000000814F
:2B527900040000000018000000000000000012000000000000000000000000000000000000000000000000000000CB11
:2B52A400820100000018000000000000000018000000000000000000000000000000000000000000000000000000FC30
:2B52CF000221000000180200000000000000A8000700000000000000000000000000000000000000000000000000B018
:2B52FA00020000000000000000000000000000000100000000000000000000000000000000000000000000000008FC82
:2B532500600201000026100000000000000006E10301000000000000000000000000000000000000000000000000CD0C
:2B535000008100000000080000000000000000800500000000000000000000000000000000000000000000000000AB79
:2B537B00C00200000024000000000000000064C00300000000000000000000000000000000000000000000000080B2C8
:2B53A600028000000000080000000000000020808100000000000000000000000000000000000000000000000088DECB
:2B53D100020100000010000000000000000020800100000000000000000000000000000000000000000000000000DE1F
:2B53FC00840100000000000000000000000000800100000000000000000000000000000000000000000000000080E31D
:2B5427000221000000080200000000000000188007000000000000000000000000000000000000000000000000009AF4
:2B545200020000000000000000000000000000000000000000000000000000000000000000000000000000000080E5C8
:2B547D00020000000036100000000000000042600001000000000000000000000000000000000000000000000008BA57
:2B54A80000000000000808000000000000005A0000000000000000000000000000000000000000000000000000809A55
:2B54D30000000000003C00000000000000001CC00500000000000000000000000000000000000000000000000000D8B9
:2B54FE000000000000000800000000000000420000000000000000000000000000000000000000000000000000808B2E
:2B552900020000000008000000000000000032000900000000000000000000000000000000000000000000000008E723
:2B555400000000000000000000000000000018000000000000000000000000000000000000000000000000000000FE16
:2B557F00000000000000020000000000000088800B00000000000000000000000000000000000000000000000080D696
:2B55AA00000000000008000000000000000000000000000000000000000000000000000000000000000000000000EFDF
:2B55D50000000000002E100000000000000042E002010000000000000000000000000000000000000000000000808345
:2B560000020000000000080000000000000042000400000000000000000000000000000000000000000000000008C562
:2B562B0000000000003400000000000000003C4002000000000000000000000000000000000000000000000000008D15
:2B56560000000000000008000000000000001A008000000000000000000000000000000000000000000000000000DEA9
:2B56810000000000000000000000000000009A000000000000000000000000000000000000000000000000000080DE06
:2B56AC00020000000008000000000000000018000000000000000000000000000000000000000000000000000008FCAD
:2B56D700020000000000020000000000000000000600000000000000000000000000000000000000000000000080819D
:2B570200040000000080000000000000000040000400000000000000000000000000000000000000000000000000E3D1
:2B572D000200000000060000000000000000222002000000000000000000000000000000000000000000000000808500
:2B575800020000000098000000000000000002208000000000000000000000000000000000000000000000000080F476
:2B57830002000000003C000000000000000014C101000000000000000000000000000000000000000000000000089F40
:2B57AE0000000000000000000000000000001AA00100000000000000000000000000000000000000000000000080E7AE
:2B57D90000000000009000000000000000007AA00700000000000000000000000000000000000000000000000000F6FE
:2B580400000000000018000000000000000038800100000000000000000000000000000000000000000000000000DCCC
:2B582F000200000000B8000000000000000028000000000000000000000000000000000000000000000000000088FCE8
:2B585A00020000000010000000000000000018008000000000000000000000000000000000000000000000000000E594
:2B58850004000000003E10000000000000007A200000000000000000000000000000000000000000000000000080D7B5
:2B58B00002000000000008000000000000001AA00100000000000000000000000000000000000000000000000080ED9B
:2B58DB0002000000003400000000000000001CC00700000000000000000000000000000000000000000000000080F019
:2B590600020000000000080000000000000002A00100000000000000000000000000000000000000000000000088FC45
:2B593100000000000000000000000000000002A00100000000000000000000000000000000000000000000000000FEAA
:2B595C00000000000000000000000000000000000000000000000000000000000000000000000000000000000080E7B9
:2B598700000000000008020000000000000000000000000000000000000000000000000000000000000000000000EDFE
:2B59B200000000000000000000000000000000000000000000000000000000000000000000000000000000000080E763
:2B59DD00000000000000000000000000000020088200000000000000000000000000000000000000000000000080E78E
:2B5A0800800008800008800008800008800000000008000000000020000220000220000220000220000220000280E798
:2B5A3300800008800008800008800008800020011208000000000020000220000220000220000220000220000280E73A
:2B5A5E00000000000020100000000000000042600601000000000000000000000000000000000000000000000080A71D
:2B5A8900000000000000000000000000000000040000000000000000000000000000000000000000000000000080E38B
:2B5AB400000000000000088000000000000000000002000000000000000000000000000000000000000000000080C7F6
:2B5ADF00000000000000000000000000000000000000000000000000000000000000000000000000000000000080E735
:2B5B0A000000000000281A80000000000000426606030000000000000000000000000000000000000000000000008B72
:2B5B3500000200000020000000000000000000000000000000000000000000000000000000000000000000000080E7BC
:2B5B6000000000000000000000000000000004000000000000000000000000000000000000000000000000000080A7EF
:2B5B8B00000000000000000000000000000000000000000000000000000000000000000000000000000000000080E788
:2B5BB600000000000000000000000000000000000000000000000000000000000000000000000000000000000080E75D
:2B5BE100120000000000000000000000000018800000000000000000000000000000000000000000000000000080E48B
:2B5C0C00002000000000020000000000000000002000000000000000000000000000000000000000000000000080E5C6
:2B5C3700028000000000080000000000000000008000000000000000000000000000000000000000000000000080EDCB
:2B5C6200004000000000040000000000000000000800000000000000000000000000000000000000000000000000E7E4
:2B5C8D00000000000000000000000000000000000000000000000000000000000000000000000000000000000080E785
:2B5CB800000000000000000000000000000000000000000000000000000000000000000000000000000000000080E75A
:2B5CE300000000000000000000000000000000044001000000000000000000000000000000000000000000000080F7DA
:2B5D0E00100000000000000000000000000000000000000000000000000000000000000000000000000000000080F7E3
:2B5D3900000000000000000000000000000000000000000000000000000000000000000000000000000000000080E7D8
:2B5D6400000000000000000000000000000000000000000000000000000000000000000000000000000000000080E7AD
:2B5D8F00080000000000000000000000000000000000000000000000000000000000000000000000000000000080EF72
:2B5DBA00020000000000000000000000000000000000000000000000000000000000000000000000000000000080E557
:2B5DE500000000000100000000000000000010000010000000000000000000000000000000000000000000000080F6FC
:2B5E1000100000000000000000000000000000000000000000000000000000000000000000000000000000000080F7E0
:2B5E3B00000000000000000000000000000000000000000000000000000000000000000000000000000000000080E7D5
:2B5E6600000000000000000000000000000000000000000000000000000000000000000000000000000000000080E7AA
:2B5E9100000000000000000000000000000000000000000000000000000000000000000000000000000000000080E77F
:2B5EBC00000000000000000000000000000000000000000000000000000000000000000000000000000000000080E754
:2B5EE700040000000000000000000000000000000000000000000000000000000000000000000000000000000080E329
:2B5F1200060000000000000000000000000000000000000000000000000000000000000000000000000000000080E1FD
:2B5F3D00000000000400000000000000000040000040000000000000000000000000000000000000000000000080A392
:2B5F6800000000000000000000000000000000000000000000000000000000000000000000000000000000000080E7A7
:2B5F9300000000000000000000000000000000000000000000000000000000000000000000000000000000000080E77C
:2B5FBE00000000000000000000000000000000000000000000000000000000000000000000000000000000000080E751
:2B5FE9000000000000C2080000000000000020100000000000000000000000000000000000000000000000000000B9DA
:2B601400020000000000000000000000000020100000000000000000000000000000000000000000000000000008DF48
:2B603F00020000000000000000000000000000000000000000000000000000000000000000000000000000000080E5CF
:2B606A00040000000000000000000000000000000000000000000000000000000000000000000000000000000080E3A4
:2B6095000200000000DA0E000000000000000000000000000000000000000000000000000000000000000000008096E0
:2B60C000020000000000000000000000000000000000000000000000000000000000000000000000000000000080E54E
:2B60EB00020000000000000000000000000000000000000000000000000000000000000000000000000000000008ED93
:2B611600800008800008800008800008800008800008000000000020000220000220000220000220000220000280E7FB
:2B614100800008800008800008800008800008800008000000000020000220000220000220000220000220000280E7D0
:2B616C00000000000000000000000000000000000000080000000000000000000000000000000000000000000080EF91
:2B6197000200006006000000000000000000000000060000000000000000000000000000000000000000000000088BDC
:2B61C200020000000400000000000000000000000000000000000000000000000000000000000000000000000080A18B
:2B61ED00040000C003000000000000000000000000BC000000000000000000000000000000000000000000000000E321
:2B621800020000000400000000000000000000000000000000000000000000000000000000000000000000000080A134
:2B624300020000000000000000000000000000000020010000000000000000000000000000000000000000000080C6C7
:2B626E00020000000000000000000000000000000018000000000000000000000000000000000000000000000088F46F
:2B629900000000000000000000000000000000000018000000000000000000000000000000000000000000000000FEC4
:2B62C400000000000100000000000000000000000018000000000000000000000000000000000000000000000000EFA7
:2B62EF00000000E0230000000000000000000000001E010000000000000000000000000000000000000000000080C61C
:2B631A00020000000000000000000000000000000018000000000000000000000000000000000000000000000088F4C2
:2B63450002000040100000000000000000000000003C020000000000000000000000000000000000000000000000DDC0
:2B637000040000000000000000000000000000000038000000000000000000000000000000000000000000000000D8EE
:2B639B00020000001300000000000000000000000008000000000000000000000000000000000000000000000000DFDB
:2B63C600020000000300000000000000000000000000000000000000000000000000000000000000000000000080D651
:2B63F100020000000000000000000000000000000030010000000000000000000000000000000000000000000008DF67
:2B641C00000000000000000000000000000000000018000000000000000000000000000000000000000000000000FE3F
:2B64470000000060060000000000000000000000003E020000000000000000000000000000000000000000000000B8CC
:2B647200000000000400000000000000000000000018000000000000000000000000000000000000000000000000BA29
:2B649D00020000C0030000000000000000000000001C010000000000000000000000000000000000000000000008CE1C
:2B64C800020000000000000000000000000000000008000000000000000000000000000000000000000000000000EDB2
:2B64F3000400000004000000000000000000000000300100000000000000000000000000000000000000000000809530
:2B651E00020000800100000000000000000000000038000000000000000000000000000000000000000000000080C750
:2B654900020000800100000000000000000000000018000000000000000000000000000000000000000000000080E527
:2B657400020000000001000000000000000000000000000000000000000000000000000000000000000000000008FDF4
:2B659F00000000600200000000000000000000000006010000000000000000000000000000000000000000000080C424
:2B65CA00000000000000000000000000000000000000000000000000000000000000000000000000000000000080E73F
:2B65F500000000C00700000000000000000000000034020000000000000000000000000000000000000000000000A9D5
:2B6620000200000004000000000000000000000000200000000000000000000000000000000000000000000000088B96
:2B664B00020000000300000000000000000000000000000000000000000000000000000000000000000000000080D6C9
:2B667600040000000000000000000000000000000000000000000000000000000000000000000000000000000080E392
:2B66A100020000808100000000000000000000000020010000000000000000000000000000000000000000000000D7D3
:2B66CC00020000800100000000000000000000000000000000000000000000000000000000000000000000000000FC24
:2B66F700020000E01000000000000000000026020026020000000000000000000000000000000000000000000088842A
:2B672200000000000000000000000000000000000000000000000000000000000000000000000000000000000080E7E5
:2B674D00000000402200000000000000000014010004010000000000000000000000000000000000000000000080968F
:2B677800000000000200000000000000000010000008000000000000000000000000000000000000000000000000DC00
:2B67A300020000000000000000000000000028010020010000000000000000000000000000000000000000000088E512
:2B67CE00020000800100000000000000000028000020000000000000000000000000000000000000000000000080F461
:2B67F900040000001300000000000000000018000000000000000000000000000000000000000000000000000000C87E
:2B682400020000000000000000000000000010000080000000000000000000000000000000000000000000000000F4C3
:2B684F0002000060110000000000000000002602003E0000000000000000000000000000000000000000000000008EB7
:2B687A00020000800000000000000000000000000090000000000000000000000000000000000000000000000008F4E5
:2B68A500000000C0230000000000000000001401001C000000000000000000000000000000000000000000000080979D
:2B68D00000000000020000000000000000000800004000000000000000000000000000000000000000000000000089CA
:2B68FB00000000800000000000000000000020010018000000000000000000000000000000000000000000000080D564
:2B692600020000000000000000000000000030000018000000000000000000000000000000000000000000000088C7AD
:2B695100000000001200000000000000000000000098000000000000000000000000000000000000000000000080DD14
:2B697C00000000000100000000000000000000000018000000000000000000000000000000000000000000000000EFE8
:2B69A700000000E02300000000000000000000000026020000000000000000000000000000000000000000000000FE9C
:2B69D200000000800100000000000000000000000018000000000000000000000000000000000000000000000080E79A
:2B69FD00020000C0110000000000000000000000001C010000000000000000000000000000000000000000000008ED8A
:2B6A2800000000800100000000000000000000000018000000000000000000000000000000000000000000000080E743
:2B6A5300000000801300000000000000000000000038010000000000000000000000000000000000000000000080E7E5
:2B6A7E00000000800300000000000000000000000018000000000000000000000000000000000000000000000080C50D
:2B6AA900020000800100000000000000000000000018000000000000000000000000000000000000000000000008ED32
:2B6AD400000000000000000000000000000018000008000000000000000000000000000000000000000000000080F601
:2B6AFF00000000E0100000000000000000001E01000E0100000000000000000000000000000000000000000000009FAF
:2B6B2A00000000000000000000000000000018000000000000000000000000000000000000000000000000000000FE2A
:2B6B550000000040220000000000000000003C0200340200000000000000000000000000000000000000000000008FB0
:2B6B8000020000000200000000000000000000000020000000000000000000000000000000000000000000000008EDD1
:2B6BAB00000000000000000000000000000000000000000000000000000000000000000000000000000000000080E758
:2B6BD600000000000000000000000000000018000008000000000000000000000000000000000000000000000080F6FE
:2B6C0100000000001200000000000000000018000020010000000000000000000000000000000000000000000000FE1F
:2B6C2C00000000000000000000000000000000000000000000000000000000000000000000000000000000000080E7D6
:2B6C5700000000000000000000000000000000000000000000000000000000000000000000000000000000000080E7AB
:2B6C8200800008800008800008800008800008800008000000000020000220000220000220000220000220000280E784
:2B6CAD00800008800008800008800008800008800008000000000020000220000220000220000220000220000280E759
:2B6CD8000000000000000000000000000000020900A0000000000000000000000000000000000000000000000000ECFA
:2B6D0300000000000000000000000000000000000000000000000000000000000000000000000000000000000080E7FE
:2B6D2E00000000000000000000000000000000000000000000000000000000000000000000000000000000000080E7D3
:2B6D5900000000000000000000000000000080100000000000000000000000000000000000000000000000000000F788
